:10000000B6C10000EAC10000E8C10000E6C100007E
:10001000E4C10000E2C100000C94DC33DEC100004A
:100020000C94E830DAC10000D8C10000D6C100004D
:10003000D4C10000D2C10000D0C10000CEC1000078
:10004000CCC10000CAC100000C94E931C6C1000057
:10005000C4C10000C2C10000C0C10000BEC1000098
:100060000C94DF30BAC10000B8C10000B6C1000076
:10007000B4C10000B2C100000C94E2300C94BD3059
:100080000C9451320C941332A8C100000C94D93056
:10009000A4C10000A2C10000A0C100009EC10000D8
:1000A0009CC100009AC100000C94BF3196C10000B1
:1000B00094C100000C94E5300C94DC308EC100003B
:1000C0008CC100008AC1000088C1000086C1000008
:1000D00084C100000C943C310C9436310C944231B4
:1000E0007CC100007AC1000078C1000076C1000028
:1000F00074C1000008000000BE922449123EABAA61
:10010000AA2ABECDCCCC4C3E00000080BEABAAAA31
:10011000AA3E00000000BF000000803F0000000079
:1001200000084178D3BB4387D1133D190E3CC3BDB2
:100130004282AD2B3E68EC8276BED98FE1A93E4C5F
:1001400080EFFFBE01C4FF7F3F00000000006E6132
:100150006E00696E66004E414E494E495459494EF3
:1001600046CDCCCC3D0AD7233C17B7D13877CC2B22
:10017000329595E6241FB14F0A000020410000C8C7
:100180004200401C4620BCBE4CCA1B0E5AAEC59D48
:100190007400407A10F35A00A0724E18090010A59E
:1001A000D4E80000E87648170000E40B5402000091
:1001B000CA9A3B000000E1F5050000809698000017
:1001C0000040420F000000A0860100000010270040
:1001D000000000E803000000006400000000000AC6
:1001E00000000000000100000000002C76D888DC30
:1001F000674F0823DFC1DFAE59E1B1B796E5E3E40D
:1002000053C63AE651997696E8E6C28426EB898C85
:100210009B62ED407C6FFCEFBC9C9F40F2BAA56FE7
:10022000A5F490055A2AF75C936B6CF9676DC11BB6
:10023000FCE0E40D47FEF520E6B500D0ED902E037E
:1002400000943577050080841E080000204E0A00C7
:100250000000C80C333333330F986E12831141EF13
:100260008D2114893BE65516CFFEE6DB18D1844B71
:10027000381BF77C1D901DA4BBE424203284725EE1
:10028000228100C9F124ECA1E53D276364696E6F0A
:1002900070737578585B0000080A400CFFC000C0FE
:1002A0004A616E7561727920466562727561727914
:1002B000204D6172636820417072696C204D6179D4
:1002C000204A756E65204A756C7920417567757393
:1002D000742053657074656D626572204F63746F2E
:1002E000626572204E6F76656D626572204465634B
:1002F000656D626572200053756E646179204D6F83
:100300006E64617920547565736461792057656402
:100310006E657364617920546875727364617920C5
:1003200046726964617920536174757264617920E1
:100330000053756E4D6F6E547565576564546875DE
:10034000467269536174004A616E4665624D61721E
:100350004170724D61794A756E4A756C417567538B
:1003600065704F63744E6F7644656300083E1124D8
:100370001FBECFEFCDBFDFE7DEBF8091400080938F
:100380004000811105C098ED21E094BF2093410009
:100390008CBB12E6A0E0B0E4EAE4F6EB00E00BBFB1
:1003A00002C007900D92AC31B107D9F720E7ACE15C
:1003B000B2E601C01D92AF39B207E1F711E0C7EB19
:1003C000D1E004C02197FE010E949554C63BD1079D
:1003D000C9F70E94A33E0C94235B12CEFB01A485B7
:1003E000B585ED91FC9111970190F081E02D682F7A
:1003F000CD01099590E080E00895F0CFCF92DF9293
:10040000EF92FF926B017C0160E07BE187EB90E073
:10041000A70196010E94795280ECC81687E2D8069F
:1004200089E0E806F10438F028503109223031051E
:1004300064F422E00AC080E8C8168AE1D80686E0A3
:10044000E806F10410F129503109E0919D6EF09118
:100450009E6E8681821799F093811382268381E8AC
:10046000C8168AE1D80686E0E806F104C8F0808163
:1004700082608083938390FF02C081E0858380E067
:10048000FF90EF90DF90CF9008952C5031092230EB
:1004900031057CF22F3F3105C1F2BCF22FEFD5CFF1
:1004A00080818D7FE6CF9FB7F894E0912A0BF09181
:1004B0002B0B8091260B20918566309186664091AA
:1004C0008766509188669FBF80FF08C0CF0188274C
:1004D000892B21F42F5F3F4F4F4F5F4F0F01169431
:1004E0000794169407941694079416940794F001B1
:1004F00016940794E00DF11D16940794102C169491
:1005000001181694010C169401181694010C1694F7
:10051000011816941694010C1124E019F109A8EEA3
:10052000B3E00E94BD526E0F7F1F811D911D089583
:10053000CF92DF92EF92FF92CF93DF936B017C011A
:10054000B2DFEB01B0DF6C1B7D0B683E7340D0F374
:1005500081E0C81AD108E108F108C851DC4FC11484
:10056000D104E104F10471F7DF91CF91FF90EF9096
:10057000DF90CF9008952FB7F894609185667091C1
:10058000866680918766909188662FBF0895109245
:100590000266089581E080938C660895E0912A6454
:1005A000F0912B640480F581E02D309719F081E003
:1005B00090E00994089581E080932C64E0912A648E
:1005C000F0912B640480F581E02D309719F082E0E2
:1005D00090E009940895AF92BF92CF92DF92EF928C
:1005E000FF920F931F93CF93DF936C017B018B01DD
:1005F000040F151FEB015E01AE18BF08C017D1072D
:1006000059F06991D601ED91FC910190F081E02DB6
:10061000C6010995892B79F7C501DF91CF911F910B
:100620000F91FF90EF90DF90CF90BF90AF90089523
:1006300090E0FC01EB56FD4B20812F3F69F184597E
:100640009D4BFC018081E82FE295EE0FE07EE20FEA
:10065000F0E0E05FFB4F9081917F908390E0FC01A0
:1006600034E0EE0FFF1F3A95E1F7422F50E061E0D2
:1006700070E001C0660F2A95EAF76383880F991F1F
:10068000FC01EC50FE4B440F551F0190F081E02D12
:10069000E40FF51F108211820895FC0151894289EF
:1006A000252F30E0842F90E0821B930B541710F01D
:1006B000CF96089501970895FC0197858089981732
:1006C00061F0A089AE0FBF2FB11D53968C91908918
:1006D0009F5F9F73908B90E008958FEF9FEF089539
:1006E000FC0197858089981731F08089E80FF11D0A
:1006F000838990E008958FEF9FEF0895FC0197851F
:100700002089892F90E0805C9F4F821B91098F7315
:1007100099270895FC010FB607FE04C080911101CE
:100720008823A9F0A085B18514968C91149785FF34
:100730000EC091898289981307C015968C911597E0
:100740008F7D15968C930895E8940C944F310895FD
:100750000F931F93CF93DF93EC018E8581608E877B
:1007600099898A8998130BC0E885F985848185FF6A
:1007700006C08E8581FD0DC080E4848312C0062FE3
:1007800019891F5F1F738A89811315C0CE01C2DFCB
:10079000FACF85818F77806490E49483E885F9852A
:1007A0008583E885F985628381E090E0DF91CF91D0
:1007B0001F910F910895E989EC0FFD2FF11DED5A5E
:1007C000FF4F0083198B8E85E885F98581FF09C06D
:1007D00085818F77806690E49483E885F9858583A9
:1007E000E3CF85818062FBCFCF93DF93EC018E85D1
:1007F000882359F0E885F985858185FD03C08481CA
:1008000086FD03C0CE0186DFF5CFDF91CF9108953D
:1008100080912564882329F0813120F080518093D4
:10082000256408958093500080E0F9CF1F93CF9303
:10083000DF93EC01E881F981838586FF47C080FF63
:1008400035C0158581FF25C08E81882341F0E0DF0A
:10085000EB85FC85309719F08E8190E009951C831B
:100860001D821886E985FA85309709F009958D81F2
:10087000882399F083E090912564992381F0905F1B
:1008800090932564E881F9818287DF91CF911F9150
:1008900008951C831E821F82EDCF86E0ECCF9091DD
:1008A0005000292F217020935000EACFB1DFEB8553
:1008B000FC85309729F08E81882311F090E009950E
:1008C0001E821D821F82188682E0DCCF87FF31C026
:1008D00081FF1EC0887139F08A8183FF04C01D82A8
:1008E000877F8A83F1CF8B818F5F8B838A8188603A
:1008F0008A83A8858D81A81738F7AC0FBD2FB11D4D
:100900001D968C91858788858F5F888783E0BACF15
:100910008585EE81E23868F4EC0FFD2FF11DE1577B
:10092000FF4F80838E818F5F8E83823878F386E0DD
:10093000A9CF80E0A7CFDC011896ED91FC919381BF
:10094000818513821186938391E095838187089531
:100950009C0129563F4FDC011F96EC911F971E9674
:100960008C91E81730F4E20FF32FF11D808190E0B5
:1009700008958FEF9FEF0895FC01DC01A956BF4F4A
:1009800097858685981740F4A90FB11D2C919F5F1C
:100990009787822F90E008958FEF9FEF0895FC01D5
:1009A00086859785891B990B0895FC01A585A2383A
:1009B00058F4A80FB92FB11D55966C9385858F5F9C
:1009C000858781E090E0089590E080E00895BF92EF
:1009D000CF92DF92EF92FF920F931F93CF93DF930B
:1009E0007C016A01B62EEB010C2F0B1910E00C15DF
:1009F0001D0528F46991C701D8DF892BA9F7C80123
:100A0000DF91CF911F910F91FF90EF90DF90CF90EA
:100A1000BF90089590E080E00895FC01892B41F09B
:100A20008681803129F481E020853185232B09F4EA
:100A300080E081700895E0910442F09105420994AC
:100A4000CF93DF93FB01309711F1009701F1681705
:100A50007907E9F0EC01AC81BD81109749F46C8312
:100A60007D83628373831082118281E090E011C0E4
:100A70001296CD91DC9113972097B9F3688379830F
:100A8000C283D38312966D937C931397EECF90E03D
:100A900080E0DF91CF910895FC01892B61F04081C6
:100AA00051814115510501F1828193812481358164
:100AB0002817390730F0CF0108952F5F3F4F248367
:100AC0003583248135812817390738F4DA01A20FDC
:100AD000B31F6C91613288F3EECF8217930759F7F9
:100AE000019784839583E7CFF0E0E0E0E4CFFC0159
:100AF00050E040E090E080E0219130ED320F3A305C
:100B000088F4C097820F911D4330510529F024E0ED
:100B1000880F991F2A95E1F74F5F5F4F44305105C9
:100B200059F708953FEB320F363010F4C797EACFEC
:100B30003FE9320F363018F487559109E3CF90E042
:100B400080E008952F923F924F925F926F927F9232
:100B50008F929F92AF92BF92CF92DF92EF92FF92CD
:100B60000F931F93CF93DF933C014B01DB014D911A
:100B70005C9111971496ED91FC9115978F010F5F81
:100B80001F4F040F151FE40FF51F8081823209F0FB
:100B900087C012962D913C91680170E060E0C6011B
:100BA000841B950B8217930708F07AC0D6018C91AD
:100BB000823209F043C0C6018E1B9F0B861B970B28
:100BC000D4011896ED91FC91019609955C0100976E
:100BD00009F466C0EC01EDE05E2EF9E04F2EAAE0CC
:100BE0003A2EB8E02B2E0C151D05C8F1188280E1B5
:100BF00090E0F30186839783A086B186D4018D911E
:100C00009C91C81AD90ABFEFCB1ADB0AF401C4823F
:100C1000D58281E090E0DF91CF911F910F91FF90FD
:100C2000EF90DF90CF90BF90AF909F908F907F908C
:100C30006F905F904F903F902F9008958C3559F4AE
:100C4000BFEFCB1ADB0AC601841B950B82179307F3
:100C500038F56F5F7F4F8FEFC81AD80AA0CFF80121
:100C600080818C3529F00F5F1F4F88832196BBCF81
:100C70009601201B310B1216130664F4818186360F
:100C800009F480C028F58F3209F483C0B0F48232B1
:100C900009F47FC0D4011A96ED91FC91C501099524
:100CA0000115110539F0F40180819181081B190BA0
:100CB0000483158390E080E0AECF8C3509F469C0E1
:100CC000823641F72882219622E0020F111D8BCF38
:100CD000823709F45AC020F48E36E1F63882F3CF19
:100CE000843709F454C08537A9F62630310594F2CB
:100CF000C8010296FCDE7C019C5D8115E4E09E0744
:100D000048F29C5F8115944008F045C0C8010696E2
:100D10009601281B390B263031050CF4BBCFD801C6
:100D200016968C9116978C3509F0B4CF17968C9146
:100D3000853709F0AFCFC8010896D9DE9C013C5D2C
:100D40002115344008F0A6CFFE2CEE24FF0CFF0C3A
:100D500093708E299F29B0E0A0E011962CE040EF1F
:100D600034E05FEF530FE52FF0E03196EC0FFD1FFD
:100D7000682F511126C0313089F1482B4883C30FA9
:100D8000D11DA3CFBCE0B8839ECF58829CCF4882B0
:100D90009ACF888398CFC701B0E0A0E026E040E07A
:100DA00031E080389105A105B105D8F240EC32E080
:100DB0008115F8E09F07A105B10598F240EE33E0F8
:100DC000D0CF682F6F736068629366E0B695A79581
:100DD000979587956A95D1F75150CACF6F776883F9
:100DE000CECF0F931F93CF93DF93EC01209729F47D
:100DF000DF91CF911F910F910895088119818E8104
:100E00009F8190FD05C08C819D81009709F0E9DFED
:100E10008E819F8190FD09C088859985009729F072
:100E2000E0910442F091054209958E819F8191FDE8
:100E300009C088899989009729F0E0910442F091CE
:100E400005420995E0910442F0910542CE010995D1
:100E5000E801CCCFCF92DF92EF92FF92CF93DF9356
:100E6000EC0189DBCC80DD80EE80FF806C197D0990
:100E70008E099F0921E0C880D980EA80FB80C616D0
:100E8000D706E806F90608F020E0822FDF91CF911F
:100E9000FF90EF90DF90CF9008955C9B09C0549B2A
:100EA00008C0809125088F7D8093250880E18BB94B
:100EB0000895809125088062F7CF8091250885FDEF
:100EC0000DC054990BC08091B16A9091B26A892B80
:100ED00029F08091250880628093250808958091EB
:100EE0007F62813071F08091896681110AC08091A2
:100EF0007A6D90917B6D8E3F914010F44F980895DC
:100F00004F9A0895F89410927A6D10927B6D8091AB
:100F1000786D9091796D8093766D9093776D7894DC
:100F2000DECFCF93DF9380917A6D90917B6D892B8B
:100F3000E9F0F894C091766DD091776D2196D170DB
:100F4000C093766DD093776D80917A6D90917B6D23
:100F5000019780937A6D90937B6D7894C0DFC15533
:100F6000D949888190E0DF91CF9108958FEF9FEF6D
:100F7000FACF8F929F92AF92BF92EF92FF920F9310
:100F80001F93CF93DF93CDB7DEB72897CDBFDEBFDA
:100F9000082F4A015B01C5DF7C0189829A82AB82FE
:100FA000BC82E9DA6D837E838F83988710E00E150B
:100FB0001F05B9F0B6DF7C0180DFCE0101964ADF64
:100FC0008823A9F380E02896CDBFDEBFDF91CF91C3
:100FD0001F910F91FF90EF90BF90AF909F908F90D7
:100FE000089581E0F0CF80919F6E81FF0BC0E0916A
:100FF0009D6EF0919E6E1382168280919F6E8D7F02
:1010000080939F6E80919F6E82FF0DC0E0919D6ED8
:10101000F0919E6E14861186168680919F6E8B7F4E
:1010200080939F6E118290E080E0089585EF90E0BC
:101030000895CF92DF92EF92FF920F931F93CF9379
:10104000DF938A01E9015881660F6093A16E1092C7
:10105000A46EE0919D6EF0919E6E8581837009F47F
:1010600052C06160678330E020E090E080E072E091
:101070004581642F63702F5F3F4F213CADE53A07F8
:1010800020F443FF1EC098E095838093A36E90E008
:101090008883998378016701C01AD10A8881998170
:1010A000C816D90690F585E99EE666DC8F3F98075D
:1010B000A9F3F70181937F01EECF30E020E097E0C4
:1010C000D7CF9923C1F0623001F7948347FF17C04F
:1010D0008238A8F72085A82FB0E0A45DB0492C93F2
:1010E0008F5F252F533808F022E8821730F774837A
:1010F00030E020E0BDCF623009F0BACFE7CF46FF45
:10110000B7CF93E0B5CF80E0C2CF90E080E0DF9131
:10111000CF911F910F91FF90EF90DF90CF900895A6
:1011200090E080E008951F93CF93DF93DA01FB01F5
:10113000EB01C80FD91F30E020E0CE17DF0739F4EC
:101140002C9311963C93DF91CF911F91089581913B
:1011500068E070E091E0132F111F1127111F220F7B
:10116000331F41E0582F592309F440E0411719F08B
:1011700045E024273058990F6150710961F7DDCFA0
:10118000BC016F5F7F4FFC018181825090E0AB0119
:10119000480F591FC8CF009771F0DC01ED91FC9109
:1011A000309749F02081318181E02130310529F0EB
:1011B0002830310511F080E008950895009779F006
:1011C000DC01ED91FC91309751F020813181C90112
:1011D0000497029730F081E02230310519F080E069
:1011E000089581E00895009761F0DC011296ED9179
:1011F000FC91309749F00084F185E02D309721F083
:10120000099482EE90E008958DEF90E008950097A4
:1012100061F0DC011296ED91FC91309749F0068067
:10122000F781E02D309721F0099482EE90E0089547
:101230008DEF90E00895CF93DF930097D9F0DC0114
:101240001296ED91FC9113973097C9F00480F581C7
:10125000E02D3097A1F00D90BC91A02DCD91DC91A7
:101260001197CD2B21F46F3F11F414966C91DF91FF
:10127000CF91099482EE90E0DF91CF9108958DEFA8
:1012800090E0FACF009759F0DC01ED91FC91309796
:1012900031F080819181892B11F4848108958FEF41
:1012A0000895009741F0DC01ED91FC91309719F021
:1012B0008281938108958EE790E00895CF93DF9324
:1012C000EC018A819B810E9454558C819D810E94F2
:1012D0005455888999890E9454558C859D850E9412
:1012E00054558A899B890E9454558C899D890E94F6
:1012F00054558E859F850E945455888D998D0E94E6
:1013000054558E899F890E945455CE01DF91CF910B
:101310000C945455CF93DF93009791F0EC018881A2
:1013200099810E9454558A819B810E9454558C81D9
:101330009D810E945455CE01DF91CF910C9454555C
:10134000DF91CF910895CF93DF93EC01892B99F032
:10135000A881B981109779F08C819D81A80FB91F60
:10136000FD0101900020E9F73197EA1BFB0BE80F24
:10137000F91FEC83FD83DF91CF910895EF92FF92E7
:101380000F931F93CF93DF93EC017B011882198297
:101390001A821B821C821D82FB0101900020E9F74A
:1013A00031978F01061B170BB8016F5F7F4F90E0DD
:1013B00080E00E94DD550097B9F0888399830A8305
:1013C0001B832C813D81232B11F4FC0110820C83A3
:1013D0001D83B70188819981DF91CF911F910F9172
:1013E000FF90EF900C94FD5688819981009711F041
:1013F0000E945455188219821C821D821A821B82F7
:10140000DF91CF911F910F91FF90EF900895CF93AF
:10141000DF93CDB7DEB72E97CDBFDEBF8DEF91E066
:1014200089879A871B861C8682E08C838B899C899E
:101430008D879E87AE01495E5F4F6EE67FE4CE01E9
:1014400001960E94843A2E96CDBFDEBFDF91CF91E8
:10145000089520916B7030916C7023303105B4F099
:101460009F938F9383EF92E49F938F938EE69FE4F5
:101470009F938F9380916A708F93809169708F93FF
:10148000C6DF8DB79EB708968DBF9EBF0895209189
:101490006B7030916C7012161306B4F49F938F9397
:1014A0008BEF92E49F938F938EE69FE49F938F93AD
:1014B00080916A708F93809169708F93A8DF8DB748
:1014C0009EB708968DBF9EBF0895AC01DB011D92AB
:1014D0001C9206970497C8F4E4E5F4E69181892FFD
:1014E0008E7FC9F0892F86958417150639F43296B8
:1014F000DB01ED93FC9390E080E008952081392F8B
:101500003170F901EC5AFB49E9CF84E093E4BFDF85
:1015100082EE90E0089583EE90E008958130910589
:1015200029F0029731F085E993E4B1CF8AE593E49D
:1015300090CF86E793E4FCCF20916B7030916C7074
:1015400022303105B4F09F938F938DEA93E49F93FB
:101550008F938EE69FE49F938F9380916A708F9311
:10156000809169708F9353DF8DB79EB708968DBFBA
:101570009EBF0895CF93DF93CDB7DEB72E97CDBF33
:10158000DEBF8EEE91E089879A871B861C8682E0FB
:101590008C838091697090916A708D879E87AE016F
:1015A000495E5F4F6D897E89CE0101960E94843A23
:1015B0002E96CDBFDEBFDF91CF910895CF92DF92FF
:1015C000EF92FF920F931F93CF93DF93CDB7DEB7C8
:1015D0002E97CDBFDEBF6B8D7C8DEDB6FEB68091B4
:1015E0006B7090916C70181619060CF042C0CDB655
:1015F000DEB6FB0101900020E9F7CF010197861BC1
:10160000970B9C01275F3F4F4DB75EB7421B530BB3
:101610004DBF5EBF0DB71EB70F5F1F4F29E0EBEF49
:10162000F2E4D80101900D922A95E1F7EDB7FEB7EB
:101630003A96019710F01192FCCFC80108960E94CB
:10164000FD568EEE91E089879A871B861C8682E084
:101650008C838091697090916A708D879E87AE01AE
:10166000435E5F4FB801CE0101960E94843ACDBE21
:10167000DEBEEDBEFEBE2E96CDBFDEBFDF91CF91AA
:101680001F910F91FF90EF90DF90CF9008958130E0
:10169000910521F0029721F080E0089581E00895FE
:1016A00082E00895CF92DF92EF92FF920F931F9303
:1016B000CF93DF93CDB7DEB72E97CDBFDEBF6B8D57
:1016C0007C8DEDB6FEB680916B7090916C70049736
:1016D0000CF442C0CDB6DEB6FB0101900020E9F764
:1016E000CF010197861B970B9C01275F3F4F4DB79A
:1016F0005EB7421B530B4DBF5EBF0DB71EB70F5FEA
:101700001F4F29E0E5EBF3E4D80101900D922A95F3
:10171000E1F7EDB7FEB73A96019710F01192FCCFC2
:10172000C80108960E94FD568EEE91E089879A873F
:101730001B861C8682E08C838091697090916A7010
:101740008D879E87AE01435E5F4FB801CE01019643
:101750000E94843ACDBEDEBEEDBEFEBE2E96CDBF4B
:10176000DEBFDF91CF911F910F91FF90EF90DF903F
:10177000CF900895CF92DF92EF92FF920F931F9335
:10178000CF93DF93CDB7DEB72E97CDBFDEBF6B8D86
:101790007C8DEDB6FEB680916B7090916C70029767
:1017A0000CF442C0CDB6DEB6FB0101900020E9F793
:1017B000CF010197861B970B9C01285F3F4F4DB7C8
:1017C0005EB7421B530B4DBF5EBF0DB71EB70F5F19
:1017D0001F4F28E0EDEAF3E4D80101900D922A951D
:1017E000E1F7EDB7FEB73996019710F01192FCCFF3
:1017F000C80107960E94FD568EEE91E089879A8770
:101800001B861C8682E08C838091697090916A703F
:101810008D879E87AE01435E5F4FB801CE01019672
:101820000E94843ACDBEDEBEEDBEFEBE2E96CDBF7A
:10183000DEBFDF91CF911F910F91FF90EF90DF906E
:10184000CF900895CF92DF92EF92FF920F931F9364
:10185000CF93DF93CDB7DEB72E97CDBFDEBF6B8DB5
:101860007C8DEDB6FEB680916B7090916C70039795
:101870000CF442C0CDB6DEB6FB0101900020E9F7C2
:10188000CF010197861B970B9C01285F3F4F4DB7F7
:101890005EB7421B530B4DBF5EBF0DB71EB70F5F48
:1018A0001F4F28E0E3EFF2E4D80101900D922A9552
:1018B000E1F7EDB7FEB73996019710F01192FCCF22
:1018C000C80107960E94FD568EEE91E089879A879F
:1018D0001B861C8682E08C838091697090916A706F
:1018E0008D879E87AE01435E5F4FB801CE010196A2
:1018F0000E94843ACDBEDEBEEDBEFEBE2E96CDBFAA
:10190000DEBFDF91CF911F910F91FF90EF90DF909D
:10191000CF9008950F931F93CF93DF938B019F93E5
:101920008F9381EA95E49F938F93C9E6D0E7DF9385
:10193000CF9388DFF801808191810F900F900F90F5
:101940000F900F900F900097A1F09F938F938EEBC5
:1019500093E49F938F93DF93CF9374DF0F900F9057
:101960000F900F900F900F90DF91CF911F910F91DB
:1019700008958FED93E49F938F93DF93CF9362DF6E
:101980000F900F900F900F90EFCF4F925F926F924A
:101990007F928F929F92AF92BF92CF92DF92EF92FF
:1019A000FF920F931F93CF93DF93CDB7DEB7162F20
:1019B0004A0139014DB65EB6FC0101900020E9F7FD
:1019C00031977F01E81AF90AA7014F5F5F4F2DB7E2
:1019D0003EB7241B350B2DBF3EBFEDB7FEB731968A
:1019E0005F016F01BC01CF010E941B57F501EE0D95
:1019F000FF1D1082002381F0602F002E000C770B5A
:101A0000C5010E94E956009791F0FC016F01819198
:101A10000817E1F38032D1F36CE270E0C6010E9456
:101A2000E956760101E0009721F4112381F080E06E
:101A300032C0101790F07C01FFEFEF1AFF0A6CE242
:101A400070E0C7010E94E9560F5F009791F7F60119
:101A500001900020E9F7CF010197FC0110826DE0B1
:101A600070E0C7010E94E956009711F0FC01108256
:101A7000F70101900020E9F73197EE19FF09E6150B
:101A8000F70520F085EF93E402DDD1CFB701C40163
:101A90000E94FD5681E04DBE5EBEDF91CF911F9149
:101AA0000F91FF90EF90DF90CF90BF90AF909F90FD
:101AB0008F907F906F905F904F900895CF92DF92BC
:101AC000EF92FF920F931F93CF93DF93D82EC92EDF
:101AD000E82FF92FDF010D900020E9F7AD0141500B
:101AE00051094E1B5F0B4C31F0F01F928BE18F932D
:101AF0005F934F939F93DF9285E594E49F938F9339
:101B000089E690E79F938F9359DD8DB79EB70A962C
:101B10008DBF9EBFDF91CF911F910F91FF90EF90EE
:101B2000DF90CF90089596E3E92E9CE6F92E10E021
:101B300000E0EA01DD27AE01B7018D2D9C2D0E944A
:101B4000C156892B61F485E0000F111F8A95E1F7DA
:101B5000F801EA5CF349148E168E178EDBCF0F5F07
:101B60001F4F90E2E90EF11C0A30110521F7D2CF88
:101B7000AF92BF92CF92DF92EF92FF920F931F939B
:101B8000CF93DF93F82EE92E8B01D42EA82FB92FF7
:101B9000FD0101900020E9F73197EA1BFB0BCE2EE7
:101BA0002BE1B12CA12C2E1750F51F928BE18F93B6
:101BB000FF27FF93EF939F93FF928EEB94E49F9305
:101BC0008F9389E690E79F938F93F8DC8DB79EB74C
:101BD0000A968DBF9EBF80E0DF91CF911F910F913C
:101BE000FF90EF90DF90CF90BF90AF900895019657
:101BF0008A309105F9F484E295E449DCECCFE50103
:101C000085E0CC0FDD1F8A95E1F7CA5CD3498C8D46
:101C1000C81207C0BE018F2D9E2D0E94F456892B3D
:101C200041F1BFEFAB1ABB0A2AE0A216B10439F7A3
:101C300090E080E0EC0125E0CC0FDD1F2A95E1F774
:101C4000CA5CD3495E01ACE1AA0EB11C2C8D2111F6
:101C5000CECF6F2D7E2DCE010E94FD56AF2DBE2D15
:101C6000FD0101900020E9F73197EA1BFB0BD5013C
:101C7000EC930E8F1F8FDD8E81E0AECF0F931F93FD
:101C8000CF93DF93CDB7DEB72897CDBFDEBF082F48
:101C90008091B16A9091B26A8115924000F188EE0C
:101CA00093E0A0E0B0E089839A83AB83BC830E9479
:101CB000BB026D837E838F8398878091B16A9091F8
:101CC000B26A8115924030F0CE010196C3D8182F28
:101CD000882371F1809125088F7D80932508F894E1
:101CE0008091AF6A9091B06A019691708093AF6ACB
:101CF0009093B06AE091AF6AF091B06AE155F7490C
:101D000000838091B16A9091B26A01968093B16A22
:101D10009093B26A789411E015C0CE0101969AD8DA
:101D2000811108C08FE697E10197F1F700C000002C
:101D30005499F3CF549B0FC0CE0101968BD88823C2
:101D400009F4BBCF812F2896CDBFDEBFDF91CF91A5
:101D50001F910F910895CE0101967CD88111ECCF8F
:101D600080912508806280932508A7CFDF92EF92AB
:101D7000FF920F931F93CF93DF93CDB7DEB72897D2
:101D8000CDBFDEBFD42E8C017C01E60EF71E0E15F2
:101D90001F0589F0F80181918F0170DF8111F7CF64
:101DA0002896CDBFDEBFDF91CF911F910F91FF909D
:101DB000EF90DF900895D1101CC088EE93E0A0E072
:101DC000B0E089839A83AB83BC830E94BB026D839E
:101DD0007E838F839887549B11C0CE0101963AD899
:101DE00081110CC08FE697E10197F1F700C0000068
:101DF000F2CF8DE043DF8111E0CFD2CF5499D0CF25
:101E000080912508806280932508CACF1092906641
:101E100041E067E170E08EE595E4A8DF73D8E091DA
:101E20008E66F0918F66309709F00994089540917D
:101E3000336C5091346CBC0183EB9AE60E94CE5611
:101E400081E08093356C08958F929F92AF92BF92FC
:101E5000CF92DF92EF92FF920F931F93CF93DF9376
:101E6000CDB7DEB72897CDBFDEBF8C015B014A013D
:101E70001092356C4093336C5093346C41E067E1C1
:101E80007FE076DE811112C010E0812F2896CDBF51
:101E9000DEBFDF91CF911F910F91FF90EF90DF9008
:101EA000CF90BF90AF909F908F900895C982DA82B3
:101EB000EB82FC820E94BB026D837E838F839887B6
:101EC0008091356C81110FC0CE0101960E942A07C6
:101ED000811109C00E945D078FE697E10197F1F734
:101EE00000C00000EDCFC801E9DD1091356C112371
:101EF00059F2A114B10449F2A40163EB7AE6C501D9
:101F00000E94CE56C2CFEF92FF920F931F93CF93B2
:101F1000DF9310E000E00097A9F0EC01FC010190D4
:101F20000020E9F77F01E81AF90AE0910242F091F6
:101F30000342C70109958C01009721F0A701BE015A
:101F40000E94CE56C801DF91CF911F910F91FF9053
:101F5000EF900895CF92DF92EF92FF920F931F932D
:101F6000CF93DF93009781F16115710569F14115F8
:101F7000510551F18417950739F1EA018C01CB0124
:101F8000C2DF7C01892B01F18E819F816C01E89475
:101F9000D1F891FD09C088899989009729F0E091CD
:101FA0000442F09105420995E88AF98ACE82DF82DF
:101FB000BE01C801DF91CF911F910F91FF90EF906B
:101FC000DF90CF900C94200590E080E0DF91CF91DE
:101FD0001F910F91FF90EF90DF90CF900895EF92B7
:101FE000FF920F931F93CF93DF9310E000E00097D1
:101FF00091F0EC01FC0101900020E9F77F01E81A63
:10200000F90AC7010E94B8548C01009721F0A7017A
:10201000BE010E94CE56C801DF91CF911F910F9152
:10202000FF90EF900895EF92FF920F931F93CF933D
:10203000DF93EC01892B89F10881198101151105C4
:10204000B1F08A819B81009729F02C813D8128176E
:10205000390718F577FD21C02C813D816F5F7F4FD7
:10206000620F731F8617970750F0020F131FC801E6
:10207000DF91CF911F910F91FF90EF900895888588
:102080009985892B51F4611580E4780748F0EE2496
:10209000EA948FE7F82E77FF06C010E000E0E7CF64
:1020A0007B01EE0CFF1CE889F989309781F0B701BC
:1020B000C80109958C01892B21F5EE85FF85888162
:1020C000998109951A821B8218821982D0CFEC85DA
:1020D000FD85C70109958C0188819981011511053C
:1020E00019F4EE85FF85EDCF4C815D814F5F5F4F29
:1020F000BC01C8010E94CE56EE85FF85888199817A
:102100000995EA82FB82088319838C819D81080FDF
:10211000191FADCF0F931F93CF93DF938C01EC0169
:10212000C40FD51FC255D446F801C083862F880F2F
:102130006D2F6170682B618370E060E0C8010296CA
:102140000E94D75684E594E6012B21F0CE019170D0
:102150008C5A9B49DF91CF911F910F910895FC01FB
:1021600082E190E00995009729F022E1FC011192AB
:102170002A95E9F708950F931F93CF93DF938C016E
:102180008091024290910342EADFEC01892B21F019
:1021900080E290E08E839F83AE0165E876E4C8011B
:1021A000D9DE892B29F4CE010E94F106D0E0C0E0EF
:1021B000CE01DF91CF911F910F910895809102423E
:1021C00090910342CCDF009729F020E430E0FC013D
:1021D000268337830895EF92FF920F931F93CF9337
:1021E000DF938C017B01EADFEC01AC01B701C80190
:1021F000B1DE892B29F4CE010E94F106D0E0C0E0C7
:10220000CE01DF91CF911F910F91FF90EF90089534
:10221000CF92DF92EF92FF920F931F93CF93DF93B2
:102220008C017B016A01809102429091034297DF09
:10223000EC01892B79F080E190E08E839F83C601C9
:1022400062DE88879987892B29F4CE010E94F106E6
:10225000D0E0C0E0AE01B701C8017CDE892B29F4D3
:10226000CE010E94F106D0E0C0E0CE01DF91CF9117
:102270001F910F91FF90EF90DF90CF900895AF9254
:10228000BF92CF92DF92EF92FF920F931F93CF9363
:10229000DF938C015B0169017A0180910242909188
:1022A00003425DDFEC01892BB1F088E090E08E8382
:1022B0009F83CC86DD86EE86FF8620E03EEF4FEFE3
:1022C00056E4C701B6010E94DA5387FD1BC08FEFA9
:1022D0009FE78A879B87AE01B501C8013BDE892B4A
:1022E00029F4CE010E94F106D0E0C0E0CE01DF91DA
:1022F000CF911F910F91FF90EF90DF90CF90BF9003
:10230000AF90089520E030E040E057ECC701B601FF
:102310000E94275118161CF080E090E8DACFC70120
:10232000B6010E94A9536A877B87D5CF2F923F922F
:102330004F925F926F927F928F929F92AF92BF92D5
:10234000CF92DF92EF92FF920F931F93CF93DF9381
:10235000CDB7DEB7A497CDBFDEBF1C013B01CB01DB
:102360000E9442098E8B6114710409F46BC0D30181
:10237000ED91FC91309709F465C04788508C20910D
:1023800012423091134240911442509115422D8FC8
:102390003E8F4F8F58A38091164290911742A09183
:1023A0001842B091194289A39AA3ABA3BCA3D3014D
:1023B00018968C911897833009F450C061147104F9
:1023C00009F44CC00D911C910115110509F446C08A
:1023D000C3010E94DE08811105C0C3010E94CB0821
:1023E000882399F1D3011296ED91FC913097B1F1C8
:1023F0000084F185E02D309789F130E020E050E055
:1024000040E060E0C30109958C01803D9105B9F47D
:102410008AEF90E0E8E5F2E03197F1F70197D1F724
:10242000D3011296ED91FC910084F185E02D30E00E
:1024300020E050E040E060E0C30109958C01012BF1
:1024400049F00CC0512C412C9ACFF8018081918128
:10245000892BB9F183E0D30118968C93D301ED91C8
:10246000FC9180819181009721F08630910509F0DF
:1024700074C183E0F1018083F101E180F12CC3019B
:102480000E94DE08882309F46FC19701A1014F5F04
:102490005F4F6FEFC3010E941B098C01073E1105BE
:1024A00009F082C1D30118961C92B1E04B1A510871
:1024B000C2010196181619060CF479CF07EE10E048
:1024C000BCC181E08B8BC3010E9442098C8FF80153
:1024D0000788F08DE02DEC8BFD8BD301ED91FC9105
:1024E00086819781A085B185813A9648A140B10542
:1024F000F0F020EA36E841E050E02D873E874F8734
:10250000588B24E030E0AE01435F5F4F66E0C301CB
:102510000E94F3088C01853F910559F430E020E0DA
:1025200050E040E060E0C3010E94F30887CF10E074
:1025300000E021E030E0AE014D5E5F4F60E0C3019E
:102540000E941B09D301ED91FC916CED75E0309771
:1025500011F06589768990E080E00E942B514B0153
:102560005C0120E030E040E051E40E948C516B01BE
:102570007C0120E030E040E85FE30E94275187FDC6
:10258000B1C020E030E040EC50E4C501B4010E944D
:102590008C51688F798F8A8F9B8F20E03FEF4FE7B8
:1025A00057E40E94DA5318160CF048C020E030E0DF
:1025B0004AE754E4C501B4010E9441534B015C0158
:1025C00020E030E84BEB55E40E948C516B017C011C
:1025D00020E030E040E85FE30E94275187FD2BC0F8
:1025E00020E03FEF4FE757E4C701B6010E94DA53FE
:1025F0001816CCF420E030E040E251E4C501B4010B
:102600000E948C510E94AE536115710529F4EF8927
:10261000EA95F1F7EF8B26C088E592E00197F1F794
:1026200061507109F1CFC701B6010E94AE53CB01D1
:102630000197F1F7ECCF61E070E0F9CF20E030E0F6
:102640004FE753E4C701B6010E94DA5318160CF0A5
:1026500043C0688D798D8A8D9B8D0E94AE53CB01CE
:102660000197F1F784E090E0898B9A8B01151105B1
:1026700009F04BC09E012F5E3F4FAE01475F5F4F99
:102680006C8DC3010E9407098C01892BF1F5D301E0
:10269000ED91FC9186819781A085B185813AE6E82C
:1026A0009E07E1E0AE07B10500F589899A892D8D75
:1026B0003E8D4F8D58A12D833E834F83588729A18E
:1026C0003AA14BA15CA129833A834B835C83049795
:1026D00059F100ED10E019C0C701B6010E94AE53D8
:1026E0006F8B95CFB1E0BF8B92CF8D879E87AF87E1
:1026F000B88B24E030E0AE01435F5F4F66E0C3017A
:102700000E94F308009789F28C014C895D891416A8
:1027100015060CF094CE415051094C8B5D8B011580
:10272000110509F0DACE8BCE44E050E0BE016B5FBC
:102730007F4FCE0109960E94C156892B31F344E0A8
:1027400050E0BE016F5F7F4FCE0109960E94C156D7
:1027500007ED10E0892BC9F2BCCF019709F08CCEB0
:1027600087E7D1018C9388CE30E020E050E040E054
:1027700064E0C3010E94F3088C01853F910511F0CC
:10278000892B49F497012F5F3F4FA1016E89C30147
:102790000E941B098C0130E020E050E040E065E041
:1027A000C3010E94F3087ACEF3018085833011F0D3
:1027B00083E080870115110509F03FC080E797E1AC
:1027C0000197F1F7D12CC12C7101F6E0EF0EF11C4D
:1027D00080EC582EAA24A394B12C410127E0820E4C
:1027E000911C28E8422ED701E52D1D92EA95E9F7C4
:1027F00020EC30E02D833E83A982BA82C3010E947F
:10280000DE08882309F465C09E012B5F3F4FA701B6
:1028100060E0C3010E9407098C010115110509F44C
:1028200012C180EE9EE20197F1F7FFEFCF1ADF0AA7
:1028300023EEC21624E0D206B1F6D301ED91FC914D
:1028400082819381807F9927809761F1C3010E94E3
:1028500051097C01C3010E94DE08811106C0C30139
:102860000E94CB08882309F4D7C061147104B1F029
:10287000D3011296ED91FC91309781F00084F1859F
:10288000E02D309759F030E020E050E040E061E08A
:10289000C301099580E797E10197F1F782E0D30141
:1028A00018968C93C801A496CDBFDEBFDF91CF915F
:1028B0001F910F91FF90EF90DF90CF90BF90AF905E
:1028C0009F908F907F906F905F904F903F902F9050
:1028D000089530E020E050E040E064E0C3010E9451
:1028E000F3088C01853F910511F0892BC9F4D301C0
:1028F000ED91FC91808191810197D9F44986828183
:102900009381807F99278097B1F49E012F5F3F4F7D
:10291000A7016E89C3010E9407098C01892BC1F0B0
:1029200030E020E050E040E065E0C3010E94F308A1
:1029300074CF1986E4CF21E030E0AE01475F5F4FEE
:102940006E89C3010E941B098C01892B49F7DDCFD9
:10295000F101868190E089839A832D813E810DEE7D
:1029600010E028173907E0F206EE10E084309105F8
:10297000B8F2019789839A839E012F5F3F4FA4018C
:102980006E89C3010E9407098C01892B49F6898150
:102990009A81019689839A838D839E83C1CF06EEA7
:1029A00010E0892B09F049CF89CDF101868184306F
:1029B00009F043CF8781873049F188F4813049F1AC
:1029C00008F43BCF02ED10E0833009F436CF06ED7A
:1029D00010E0853009F431CF01EE10E02ECF04EF86
:1029E00010E08F3009F429CF30F40AEF10E088307E
:1029F00009F423CFF1CF03EF10E0813109F41DCFAB
:102A000004ED10E08F3F09F418CFE6CF07ED10E09A
:102A100014CF01ED10E011CFB0EFEB22FF24E0E284
:102A2000EE16F10409F43ACF82E08983C3010E94D3
:102A3000420921E030E0AE014F5F5F4F682FC301D4
:102A40000E941B092BCF8D819E818430910508F453
:102A5000A6CFD1011696CC90CA94CA94D12CAE01BF
:102A60004F5F5F4FB701C6010E949308F701EC0D5D
:102A7000FD1D99818081981305C09A8181819817E5
:102A800009F493CF05EE10E0D8CE2F923F924F92EB
:102A90005F926F927F928F929F92AF92BF92CF92EE
:102AA000DF92EF92FF920F931F93CF93DF93CDB7F7
:102AB000DEB7C05FD109CDBFDEBFE114F104C9F4B8
:102AC00090E080E0C051DF4FCDBFDEBFDF91CF91FE
:102AD0001F910F91FF90EF90DF90CF90BF90AF903C
:102AE0009F908F907F906F905F904F903F902F902E
:102AF0000895009719F482EE90E0E4CFDC01ED91A7
:102B0000FC910280F381E02DB12CA12CEF2BA1F0E0
:102B1000A0E4AA2EB12C613079F070E8A72EB12C78
:102B2000623051F4B4E2AB2EB12C4830510521F49F
:102B3000F0EAAF2EBB24B394F701E20FF31FAE16F9
:102B4000BF06C8F21701C151DF4F08831983CF5E5A
:102B5000D0402901C751DF4F6883C95ED040C351BF
:102B6000DF4F88839983CD5ED0409A01E3E0220F46
:102B7000331FEA95E1F7C651DF4F28833983CA5ED8
:102B8000D04030E2C851DF4F3883C85ED04010E0FB
:102B900000E0D12CC12CF12CE12C462F4068C4510F
:102BA000DF4F4883CC5ED040E214F30408F088CFB6
:102BB000C851DF4F5881C85ED040503209F0A4C0E0
:102BC000C60175E0880F991F7A95E1F7D501A81B1A
:102BD000B90B909710F0802F10C08701040D151DC0
:102BE000169507951695079507701127802FB4E065
:102BF000C851DF4FB883C85ED040877090E0C7519E
:102C0000DF4F3881C95ED040323009F486C096016A
:102C100053E0220F331F5A95E1F7287F3770822B3C
:102C2000932BC851DF4F5881C85ED040C451DF4F4D
:102C30002881CC5ED040503229F0C751DF4F288127
:102C4000C95ED0402C838D839E8382E08B8397E086
:102C50009A83CE0101960E94C008C351DF4F68815C
:102C60007981CD5ED040CE01019660DB009709F0FE
:102C700029CFC851DF4FA881C85ED0408A2E912C41
:102C8000A401BE01685F7F4FCE0188539F4F0E9411
:102C9000CE56C60123E0880F991F2A95E1F7800FD1
:102CA000911F880F991F880F991F70E060E08415AD
:102CB000950518F4B201681B790B861A970A310141
:102CC0006E187F088614970408F4340128EC30E06D
:102CD0002C0F3D1F620F731FA301C151DF4F88816D
:102CE0009981CF5ED0408E0D9F1D0E94CE56E60C7E
:102CF000F71CC851DF4F3881C85ED0403032C1F474
:102D00004FEFC41AD40A50CFC851DF4F2881C85E94
:102D1000D040243009F0EFCE5ECF3C2D2227C651A3
:102D2000DF4F48815981CA5ED040242B352B77CFA5
:102D30000F5F1F4F39CFEF92FF920F931F93CF93E7
:102D4000DF938C01C0918A66D0918B66209731F118
:102D5000E881F9813097C1F080819181892B41F41C
:102D6000E0910A40F0910B40309731F51E821F82AE
:102D7000E881F98180819181069731F48A819B8174
:102D80000E9454551A821B8280918A6690918B66AC
:102D90000E94545510928A6610928B6686E190E0EC
:102DA0000E94B854EC01892B69F410928A66109243
:102DB0008B6681EE90E056C08E819F810995892BAC
:102DC000A9F2D6CF84E1FE013296DF011D928A95E9
:102DD000E9F708831983F80180819181892B09F033
:102DE00048C080E090E48A839B831C821D82E0912E
:102DF0000040F09101403097E1F1809102409091C4
:102E00000340892BB1F1B801CE010995892B89F5D1
:102E1000EA81FB810280F381E02DCE0109950097C4
:102E200041F5C0938A66D0938B66D80112962D9196
:102E30003C9123303105B1F48E01075F1F4FEE2422
:102E4000E394F12C23E130E050E040E060E0CE017B
:102E50001CDE009739F4E0918A66F0918B6621853B
:102E6000287F2187DF91CF911F910F91FF90EF90E5
:102E70000895CE010E94545598CFCF93DF9300D090
:102E800000D0CDB7DEB70E94BB0228EE33E040E0B1
:102E900050E00E9479528091926690919366A09141
:102EA0009466B0919566820F931FA41FB51F898306
:102EB0009A83AB83BC83CE0101960E94ED339C01C3
:102EC00046E755E469E170E086E996E60E946A36D5
:102ED00086E996E62496CDBFDEBFDF91CF910895B7
:102EE0004F925F926F927F92AF92BF92CF92DF929A
:102EF000EF92FF920F931F93CF93DF93CDB7DEB77F
:102F0000A897CDBFDEBF8C015B0119821A82FE013A
:102F100033968EE1DF011D928A95E9F701151105BF
:102F200031F490E2A92EB12C8E010F5F1F4FF801F2
:102F3000EA0DFB1D319710826801F12CE12C80ED28
:102F4000482E87E0582E612C712CAE14BF0409F472
:102F50006BC049A25AA26BA27CA20E94BB026DA3C5
:102F60007EA38FA398A780917A6D90917B6D892B1A
:102F700079F4CE0181960E942A07811109C00E942E
:102F80005D07EFE6F7E13197F1F700C00000EBCF06
:102F900080917A6D90917B6D892B81F10E949107D0
:102FA000FFEFEF1AFF0AD6018D936D01B2E0EB1629
:102FB000F10458F2F601329790819D3031F68A3053
:102FC00021F668EC72E4C8010E942A570097F9F0D4
:102FD000FC01108281E090E0A896CDBFDEBFDF91BA
:102FE000CF911F910F91FF90EF90DF90CF90BF9006
:102FF000AF907F906F905F904F900895CE01819633
:103000000E942A07882351F284E090E0E5CF6EEB1E
:1030100072E4C8010E942A57009709F496CFDC0198
:103020001C9282E090E0D8CF83E090E0D5CF9F92D1
:10303000AF92BF92CF92DF92EF92FF920F931F93C6
:10304000CF93DF93CDB7DEB76297CDBFDEBFA82E9B
:10305000992E7B016A010E9482079F92AF928DE8B0
:1030600095E49F938F9389E690E79F938F930E94B7
:10307000520B0F900F900F900F900F900F9086E0D3
:10308000B82EAA2DB92DFD0101900020E9F7319746
:10309000BF016A1B7B0B41E08A2D992D0E94B60E61
:1030A000B601C7011DDF8C0183309105E1F4E11405
:1030B000F104D9F062EF71E6C7010E94FD5684EA7F
:1030C00095E40E94470AC8016296CDBFDEBFDF913A
:1030D000CF911F910F91FF90EF90DF90CF90BF9015
:1030E000AF909F9008950197C1F02FEF8EE994E281
:1030F000215080409040E1F700C00000BA94B11028
:10310000C0CF02301105C9F18CF469E476E40115F1
:103110001105A9F10130110591F46CE176E4CE01BD
:1031200001960E94FD5601E010E009C0043011052F
:1031300071F154F167E376E40530110501F189E698
:1031400090E720916B7030916C702430310509F05C
:10315000BACF9E012F5F3F4F3F932F932EE436E46B
:103160003F932F939F938F930E94BA0A0F900F90D3
:103170000F900F900F900F90A6CF67EA73E4CE01E7
:1031800001960E94FD56DBCF6FE176E4F8CF6FE247
:1031900076E4F5CFCF92DF92EF92FF920F931F93D9
:1031A000CF93DF93CDB7DEB7C250D140CDBFDEBFE6
:1031B000E82E19821A82FE0133968EEFDF011D92EE
:1031C0008A95E9F740E051E0BE016F5F7F4F87E5E8
:1031D00096E42DDF019731F083E696E40E94470ADA
:1031E00080E026C065E177E5CE0101960E945C5043
:1031F0008E010F5F1E4F24E8C22E26E4D22EF12C42
:10320000009771F31F930F93DF92CF920B969F93CA
:103210008F930E94E4570F900F900F900F900F9094
:103220000F90F80180819181E816F90671F481E030
:10323000CE5FDE4FCDBFDEBFDF91CF911F910F91EB
:10324000FF90EF90DF90CF90089565E177E590E0F3
:1032500080E00E945C50D4CFFF920F931F93CF93D6
:10326000DF93CDB7DEB7C95AD109CDBFDEBF082F76
:10327000F92E83E08FDF182F81110FC087E896E4C5
:103280000E94470A812FC755DF4FCDBFDEBFDF91B8
:10329000CF911F910F91FF90089519821A82FE011C
:1032A000339687EADF011D928A95E9F71F9281E044
:1032B0008F938F938BEB8F93FF920F9389EE96E40E
:1032C0009F938F938E010F5F1F4F1F930F930E9449
:1032D000BA5750E040E070E060E0C801A8DE11E0BD
:1032E000CDBFDEBF019771F210E0CCCF4F925F925D
:1032F0006F927F928F929F92AF92BF92CF92DF9206
:10330000EF92FF920F931F93CF93DF936115710597
:1033100099F490E080E0DF91CF911F910F91FF90A1
:10332000EF90DF90CF90BF90AF909F908F907F9065
:103330006F905F904F9008959B017C01009709F476
:10334000A4C05C018C01912C812CF8019191911108
:103350002CC00E191F09080D191DB8016D5F7F4F94
:10336000C9010E9413100097A1F2EC012196680197
:10337000EFEFCE1ADE0AC80ED91E3801F2E06F0E4A
:10338000711C680E791E892839F562E2B62EFC019F
:10339000B082A801B701CE010E94CE56F601B082DC
:1033A000F301108281E090E0B6CF9E3058F49C305B
:1033B00020F488EF890F833048F48FEF881A980A39
:1033C0008F01C3CF9232C9F39C35B9F39032C0F765
:1033D00085E0880E911CF4CF22E2FC0120838CE56D
:1033E000F82E96E6E92E03E117E422E7922E34E761
:1033F000832E4EE6542E52E6452EF50181915F0153
:10340000811104C082E2F6018083CACF803248F085
:10341000823239F08C3529F088839E01E9012196AA
:10342000ECCF9E012F5F3F4FF882F50131978081ED
:103430008C3099F040F48930A1F08A3081F08830E6
:1034400091F44982EBCF823231F08C3521F08D300E
:1034500051F49982E3CF8983E1CFE982DFCF5982AA
:10346000DDCF8982DBCF1F928F931F930F933F9302
:103470002F930E94BA579E012B5F3F4F0F900F90E2
:103480000F900F900F900F90C9CF63E070E0C901CB
:103490000E941310009709F43CCF69E177E40E9481
:1034A000FD5680CF2F923F924F925F926F927F9204
:1034B0008F929F92AF92BF92CF92DF92EF92FF9244
:1034C0000F931F93CF93DF93CDB7DEB7A497CDBFF4
:1034D000DEBF7C018B01DC0116968D919C911797C4
:1034E00099278830910509F458C09CF482309105E1
:1034F00009F449C084309105C1F1019791F466E067
:1035000070E0C8010E94131061E277E40097B1F502
:1035100008C08032910509F426C134F4409709F4BB
:1035200008C190E080E009C18034910509F49AC196
:1035300080389105B1F7F701A085B185109789F31F
:10354000FD0101900020E9F76F01CA1ADB0AB601FC
:10355000C8010E941310009721F3D70118966D91AE
:103560007C91A6010E94CE560BC065E070E0C801B8
:103570000E9413106CE177E4009799F20E94FD56C7
:1035800081E090E0DAC065E070E0C8010E941310AD
:10359000009739F267E277E4F1CFF701448455846C
:1035A000668477849E012F5F3F4F2F8F38A38AE177
:1035B000D9011D928A95E9F71B8E1C8E1D8E1E8ED9
:1035C000672B09F4AECFA3019201C301B2010E949F
:1035D000275181110CC0A3019201C301B2010E94C5
:1035E000DC529B01AC010E942751882379F16CE1E8
:1035F00077E4CE0101960E94FD5694E0292E312CED
:10360000FAE12F16310408F08CCFB1016F5F7F4FC4
:10361000C8010E941310FC01DE011196009709F405
:1036200080CF9D014F8D58A1241B350B22153305EA
:1036300008F47BC0820D931DDC011C92F80184818B
:103640009581280E391E248235829ACF7F926F92FF
:103650005F924F928CE297E49F938F93E1E0F0E0CA
:10366000EC0FFD1FFF93EF930E94BA571C01CE0190
:103670004B969F938F9383E397E49F938F9321E0DF
:1036800030E02C0F3D1F3F932F930E94E457CDBF96
:10369000DEBF0197B1F58B8C9C8CAD8CBE8CD501B7
:1036A000C401BF7789A39AA3ABA3BCA37301620132
:1036B000E894F7F8A7019601BC01CD010E94DA5306
:1036C000181624F4C9A0DAA0EBA0FCA0A301920173
:1036D000C501B4010E94DC524B015C01E894B7F8CB
:1036E00020E030E040E054E3C701B6010E948C5175
:1036F0009B01AC01C501B4010E94275118160CF0C2
:103700007FCF7F926F925F924F9287E397E49F9370
:103710008F93A1E0B0E0AC0FBD1FBF93AF930E94A9
:10372000BA571C01CDBFDEBF6BCF2D9120833196E0
:1037300078CFF70180859185D9DDA496CDBFDEBF16
:10374000DF91CF911F910F91FF90EF90DF90CF907D
:10375000BF90AF909F908F907F906F905F904F90B1
:103760003F902F900895672B09F4DBCE1496ED90CF
:10377000FC9061E070E0C8010E941310009709F40A
:10378000D0CE2BE5FC012083D80114968D919C911D
:103790001597019614968D939C93159716968D9177
:1037A0009C911797019616968D939C931797BCE260
:1037B000BB2E80E2A82EE114F104B9F462E070E0BF
:1037C000C8010E9413102DE5009709F4AACEFC0150
:1037D00020831182D80116968D919C91179701979D
:1037E00016968D939C931797CBCEB801C7015ADEDE
:1037F000892B09F496CEC8010E94A309F7018081A4
:103800009181892B59F1D8011A968D919C91A2E052
:10381000CA2ED12C892B19F4CC24C394D12CB601F7
:103820006F5F7F4FC8010E941310009709F479CE93
:10383000FC01B082D8011A962D913C913196232B30
:1038400029F0FC013296DC011196AC921082F8014D
:10385000848195818C0D9D1D84839583D701ED9086
:10386000FC90A9CF6115710509F45BCEFB0182853F
:103870009385E2E0CE2ED12C892B19F4CC24C3946D
:10388000D12CD7011496ED90FC90B6016F5F7F4F5D
:10389000C8010E941310009709F443CE2BE7FC01E6
:1038A0002083D80116962D913C9117972F5F3F4F9B
:1038B00016962D933C9317971A962D913C91232B96
:1038C00011F02AE02183F801848195818C0D9D1DE2
:1038D0008483958339E0B32E4AE3A42E5CE2952ECF
:1038E0006AE0862EF80182859385E114F10441F5A2
:1038F00062E070E0892B21F0668177816F5F7F4FF6
:10390000C8010E941310009709F40BCED8011A9633
:103910002D913C91232B91F0BC01FC0189E0F82E04
:10392000CF01D80116962D913C9121503109AF015C
:10393000461B570B4217530708F499C02DE747CF92
:10394000892B09F1D80116966D917C91C8010E94CE
:103950001310009709F4E5CDFC01D80116962D91BE
:103960003C911797AF01481B590B4217530708F4B6
:103970007CC014968D919C911597820F931F14967D
:103980008D939C931597B801F70180899189AEDCDE
:10399000892B09F4C6CDC8010E94A309D8011A9643
:1039A0008D919C9122E0C22ED12C892B19F4CC242C
:1039B000C394D12CB601C8010E941310009709F4DA
:1039C000B0CDFC01A082D8011A962D913C91232BF9
:1039D00009F0B182F801648175816C0D7D1D6483ED
:1039E0007583B801C7015EDD892B09F49ACDC80142
:1039F0000E94A30921E030E0D8011A968D919C9194
:103A0000892B11F430E020E081E090E0F701408163
:103A10005181452B11F490E080E06901C80ED91E58
:103A2000B6016F5F7F4FC8010E941310FC01892B04
:103A300009F477CDD7018D919C91892B11F090825B
:103A40003196D8011A968D919C91892B11F0808224
:103A500031961082F80184819581C80ED91EC482E6
:103A6000D582D701ED90FC903DCFB19276CFF19207
:103A700057CFCF92DF92EF92FF920F931F93CF9386
:103A8000DF93CDB7DEB76297CDBFDEBF7C016B01A0
:103A90008E010F5F1F4F82E1F80111928A95E9F7BD
:103AA000E0910242F091034280E091E00995898320
:103AB0009A8320E031E02B833C83CB86DC8626E0B2
:103AC000E2E0F2E4DE011D9601900D922A95E1F705
:103AD000892BE1F0E114F104C9F0B801C701E2DC7F
:103AE000892BA1F0C8010E94A309E0910642F09140
:103AF00007428D819E813097B9F0BC016F5F7F4F87
:103B000089819A8109958C01892B91F509811A8106
:103B10000115110569F1E0910442F0910542C801D7
:103B2000099510E000E024C0E0910242F0910342C8
:103B3000019609958C01892B49F34D815E818B811A
:103B40009C814F5F5F4F8417950708F4AC01698132
:103B50007A81C8010E94CE56ED81FE81E00FF11FEF
:103B60001082E0910442F091054289819A81099581
:103B7000C8016296CDBFDEBFDF91CF911F910F913B
:103B8000FF90EF90DF90CF900895CF92DF92EF9269
:103B9000FF920F931F93CF93DF93CDB7DEB7C4543B
:103BA000D140CDBFDEBF10919066111105C08EE3EC
:103BB00097E40E94470A55C08E010B551F4FF8012C
:103BC000119211922BE9DF011D922A95E9F71F92BC
:103BD0001F929F938F938BE797E49F938F931F93ED
:103BE0000F930E94BA5750E040E070E060E0C801D7
:103BF0001EDACDBFDEBF019731F08AE997E40E945B
:103C0000470A10E02EC019821A82FE01339682EA1A
:103C1000DF011D928A95E9F7CE5BDE4F188219828B
:103C2000C254D140CC5BDE4F1882C454D14080E2F4
:103C3000C82E9EE4D92EE12CF12C00E010E020E00B
:103C400030E044EA50E0BE016F5F7F4F8BEB97E4BA
:103C50000E94240F182F811112C08FEC97E40E944C
:103C60009C0A812FCC5BDE4FCDBFDEBFDF91CF91B1
:103C70001F910F91FF90EF90DF90CF90089500E09B
:103C800023E030E0AE014E5B5E4F62E0CE01019674
:103C90000E94C50C182F811103C08EEF97E489CFC5
:103CA000CE018E5B9E4F0E943C4F8F3FD9F0882300
:103CB000C1F2B8E18B02C0011124875D9F4B9F9335
:103CC0008F9389E398E49F938F9389E690E79F937E
:103CD0008F930E94DE0A0F900F900F900F900F901D
:103CE0000F908FCF81E1E5CF0F931F93CF93DF9399
:103CF0000097D1F08B01FC01C481D581209751F050
:103D0000688979896115710579F0C8010E94F456B6
:103D1000892B31F4CE01DF91CF911F910F9108953E
:103D20000990D881C02DEACFD0E0C0E0F3CF7F92D8
:103D30008F929F92AF92BF92CF92DF92EF92FF92BB
:103D40000F931F93CF93DF937C01762E5A0110E0DF
:103D500000E00097D1F060E678E4FC018081918179
:103D6000C3DFFC0180849184F701C480D5808091F9
:103D70003D64811119C010E000E0F7018281938158
:103D80000E94F106C7010E945455C801DF91CF91EE
:103D90001F910F91FF90EF90DF90CF90BF90AF9069
:103DA0009F908F907F9008950E94DE10EC01892BE8
:103DB00011F320E030E040E351E4F1E0CF16D1040C
:103DC00021F420E030E040EA50E466E678E4CE01F9
:103DD0000E943F11892B31F410E000E0CE010E94D7
:103DE000F106CBCF4AD8AC0160EF7AE5CE010E9454
:103DF0000811892B89F340912D6450912E6469E656
:103E000078E4CE010E940811892B31F340912F6490
:103E10005091306462E778E4CE010E940811892B4A
:103E2000D9F20E94DE108C01009709F4A4CFAC01F6
:103E300067E778E4CE010E94AA0F892B21F4C8011C
:103E40000E94F106C9CF4BE758E46FE177E4C8015F
:103E50000E940811892B09F4BFCF4FE758E463E8AB
:103E600078E4C8010E940811892B09F4B5CF40916C
:103E70003164509132646AEE7AE5C8010E940811FB
:103E8000892B09F4A9CF0E94DE108C01009709F458
:103E9000A3CFAC0165E876E4CE010E94AA0F892B7E
:103EA00071F2A40160E678E4C8010E940811892B30
:103EB00009F492CFA114B10421F482EFA82E81E677
:103EC000B82EA50165E878E4C8010E940811892B85
:103ED00009F482CF772061F066E070E081E0C816D7
:103EE000D10441F067E070E0E2E0CE16D10411F0B9
:103EF00064E070E0072E000C880B990B0E942D5196
:103F00009B01AC0169E878E4C8010E943F11892B4C
:103F100009F462CF70E060E0CE01ABDD8C015ECFD2
:103F2000CF93DF9363EB77E4FC0180819181DCDE4A
:103F3000EC01009751F00E940D05882331F088852F
:103F40009985DF91CF910C94EF0F90E080E0DF91A5
:103F5000CF9108952F923F924F925F926F927F92EE
:103F60008F929F92AF92BF92CF92DF92EF92FF9289
:103F70000F931F93CF93DF93CDB7DEB7C156D440D5
:103F8000CDBFDEBFD82EB92EC62E772EA42E952EED
:103F90002DB63EB6F0908D66FF2009F433C241E0A5
:103FA00067E170E08EE595E40E94B60E70E060E097
:103FB00090E080E00E9470170E948207AD2DBB2D1B
:103FC000FD0101900020E9F73197CF018A1B9B0B7F
:103FD000AA2DB92DFD0101900020E9F73197EA1BC8
:103FE000FB0BEDB6FEB68E0F9F1F9C01245E3F4F6C
:103FF0004DB75EB7421B530B4DBF5EBF0DB71EB72B
:104000000F5F1F4FADB7BEB711961C92F8013196E6
:104010004A9697FD03C011920197FBCF81E0BAD871
:10402000811108C08CE898E40E94470AEDBEFEBEEC
:10403000F12CE8C180917E7081110CC081E08093E9
:104040007E7089ED91E40E949B16882319F082E42A
:1040500099E4EACF1F9281E08F9382EF91E69F93DC
:104060008F939F92AF92BF92DF9284E699E49F93E1
:104070008F931F930F930E94BA5750E040E070E077
:1040800060E0C8010E941718EDB7FEB73C96EDBF7F
:10409000FEBF019719F087E899E4C6CFEDBEFEBEDA
:1040A00041E06DE677E287E49AE40E94B80D41E0D2
:1040B00066E07FE089E59AE40E94B80D8E01075B17
:1040C0001C4FD8011D924D015E01B7E1AB1ABCEF48
:1040D000BB0AF40111924F01EA15FB05D1F71F92BB
:1040E0008CE38F9382E28F9383EB8F937F92CF92B7
:1040F0008EE69AE49F938F931F930F930E94BA5773
:1041000050E040E070E060E0C8010E9417182DB751
:104110003EB7265F3F4F2DBF3EBF019729F08EE887
:104120009AE40E94470A84CF19821A82FE013396CC
:104130008EE791E0DF019C011D9221503040E1F7B4
:1041400050E2C52E6EE4D62EE12CF12C00E010E0FA
:1041500020E030E040E851E0BE016F5F7F4F8CEB24
:104160009AE40E94240F811103C087EC9AE4D9CF0E
:104170006E013FE7C31A3EEFD30AF6011192119286
:104180008FEFDF011D928A95E9F781E080938966C0
:1041900080E88093450400E026E030E0AE01455A17
:1041A0005B4F60E0CE0101960E94C50C811107C0F3
:1041B0008CE59BE40E94470A81ED9BE4B2CF00E0CE
:1041C00021E430E0A40163E0CE0101960E94C50C19
:1041D000F82E811103C08BE69BE4ECCF8E01065DC7
:1041E0001B4F3501E02ECF59DB4F1883C156D44009
:1041F0004AE8842E4BE4942E2E01B7ED4B1ABBEF08
:104200005B0A1F930F939F928F927F926F920E94EF
:10421000E457E2E06E0E711C0F5F1F4F0F900F907E
:104220000F900F900F900F906414750451F78090C9
:104230008A6690908B66C4010E945109019703978A
:1042400008F0FAC0D401ED91FC918281938103972B
:10425000E1F430E2732E80E4836081149104C1F4B0
:1042600082EE90E09F938F9380E99BE49F938F93DE
:1042700089E690E79F938F930E94DE0A0F900F903C
:104280000F900F900F900F9097CF712C80E0E4CF9C
:104290008E010E571D4FF80183831482158280E230
:1042A000EE2DCF59DB4FF881C156D440D801169678
:1042B00001900D928A95E1F786E1D80112968C93D0
:1042C000129727E2E22E1196EC92C8010E94C008D4
:1042D000B401C8010E949611009721F6872D8068CD
:1042E000F801838314821582C4010E94510921E4DC
:1042F000D80112962C93129780970297A8F087E026
:1043000011968C93C8010E94C008B401C8010E9494
:104310009611009709F0A6CFD80116968C91833498
:1043200031F086EE90E09ECFF801E182EBCF80E4A1
:10433000F8013796D50101900D928A95E1F781E158
:10434000E6EFFBE4DE01A65BBB4F01900D928A9580
:10435000E1F7F801119211928FE7DF011D928A9522
:10436000E9F7D801F50181915F01E82F082E000CD3
:10437000FF0B94E0F595E7959A95E1F7EF70FF272D
:104380002AE434E02C0F3D1FE20FF31F90819C9331
:10439000E82FEF70A9014E0F511DFA01808111968F
:1043A0008C93119712964A145B04E1F6CE5FDC4FB2
:1043B0001882C250D340CE01855A9B4F0E943C4F79
:1043C0001F930F939F938F9386EB9BE49F938F9301
:1043D000DF92CF920E94BA57F60101900020E9F7D0
:1043E0003197BF016C197D0941E0C6010E94B60EEC
:1043F0001092896680E8809346048DB79EB7089630
:104400008DBF9EBF8F2D2DBE3EBECF59DB4FCDBF82
:10441000DEBFDF91CF911F910F91FF90EF90DF9062
:10442000CF90BF90AF909F908F907F906F905F9054
:104430004F903F902F90089585EF90E013CF90E03C
:10444000FC01ED5BFD4B30813F3F61F1FC01EB5620
:10445000FD4B208184599D4BDC01EC91B0E2EB9F38
:10446000F0011124FC5FA62FA37021F0AE0FBF2F27
:10447000B11D3C933FB7F89484E0769567958A9593
:10448000E1F7822F90E04096E80FF91F808163FFEB
:1044900004C0887F962F9770892B607309F088601D
:1044A00080833FBF08950F931F93CF93DF9389328B
:1044B00008F0C4C090E0DC01AD5BBD4B2C912F3FF8
:1044C00009F4BCC08C0104591D4BE801E881D0E21D
:1044D000ED9FF0011124FC5F611133C02683308110
:1044E0002323AC014B565D4B211111C0EA012881F9
:1044F000309781F1283070F57096E20FF11D3FB7CB
:10450000F8942081611129C0277F20833FBFFA01E1
:1045100030813F3F09F492C0E8012881363090F5A0
:104520003091E605432F4770241319C0EC91E53014
:1045300008F0EE0F8091010AE095E823E093010A6C
:104540007DC0643029F43481278364816223C7CF1E
:104550002583C5CFF0E0E0E0D2CF2860D6CF387118
:1045600069F4213079F4EC91E53008F0EE0F809198
:10457000410AE095E823E093410A60C0383111F424
:10458000263089F3865E9D4BFC01808186FF3DC00D
:104590009091E8059770482F50E04F7B94171506CF
:1045A000A1F5EC918091920B8E2309F447C0C0E2F3
:1045B0002C9F900111243C5FE83008F055C0205F2B
:1045C0003F4FE20FF32FF11D4FB7F8949091800BFE
:1045D0009E7F9093800B90918E0B90FFFCCF20914B
:1045E000920B90E08095909530E08223932328ED04
:1045F00024BF8093920B8091800B81608093800B0D
:1046000080818F7780834FBF19C085FF15C030E14F
:10461000839FF0011124F75F91819770973071F4B7
:10462000EC91853280F48032B0F4883009F49CCF6C
:10463000803109F47CCF02C08111F2CFDF91CF919C
:104640001F910F910895803409F4ACCF8038B1F7F1
:104650001092A006F3CF90E1899FF0011124F75F3B
:1046600081818F7E8183EACFF0E0E0E0ADCF0E94D0
:10467000470B61E018CF61E081E090E0F8DF87E070
:104680009CE40E945E0D87E49AE40E945E0D89E539
:104690009AE40E945E0D80919066882361F050E05C
:1046A00040E070E060E08EE595E40E9417180E94FB
:1046B000820710929066E0918E66F0918F66309737
:1046C00009F0099581E0089589E19CE40E94290A96
:1046D000D2DF85E39CE40C94290A0F931F93CF93B8
:1046E000DF938C01EB016231710581F0693971054D
:1046F00091F0E091FE65F091FF65309791F0BE0179
:10470000C801DF91CF911F910F91099483E49CE43C
:104710000E94290AD9DF85E69CE40E94290AD4DF99
:10472000E8CFDF91CF911F910F9108950E94470B21
:1047300060E0B9CE2F923F924F925F926F927F923C
:104740008F929F92AF92BF92CF92DF92EF92FF92A1
:104750000F931F93CF93DF93CDB7DEB7C457D10923
:10476000CDBFDEBFE1968EAF9FAFE1973B01B42E88
:10477000A52E69012DB73EB7E5962EAF3FAFE59761
:10478000DC011D921C92CB010E942C19811124C0C6
:1047900088EB9CE40E94470A0FEF1FEFC801E596E3
:1047A000EEADFFADE597EDBFFEBFCC58DF4FCDBFFF
:1047B000DEBFDF91CF911F910F91FF90EF90DF90BF
:1047C000CF90BF90AF909F908F907F906F905F90B1
:1047D0004F903F902F900895C114D10421F0F6011D
:1047E0008081811133C1AF92BF927F926F9289ED28
:1047F0009CE49F938F9309E610E71F930F930E9409
:10480000520B90E080E00E9404577C012DB73EB728
:10481000285F3F4F2DBF3EBF8DB69EB681E090E032
:1048200085DF50E040E070E060E086EE9CE40E94AE
:104830001718EB2DFA2DDF010D900020E9F7CD01BF
:104840008E1B9F0B4B961C01512C412C2E0C3F1C98
:10485000411C511CB201A1014F5F5F4F6F4F7F4F51
:10486000EDB7FEB7E41BF50BEDBFFEBF2DB73EB7AE
:104870002F5F3F4F690122EF31E63F932F93AF92B5
:10488000BF921F921F9229EE3CE43F932F93E80EB4
:10489000F91EFF92EF92DF92CF920E948357ADB73D
:1048A000BEB71C96ADBFBEBF97FF30C09F938F931E
:1048B00086E09DE49F938F931F930F930E94DE0ADF
:1048C0000F900F900F900F900F900F90C12CD12C44
:1048D000760110E000E08DBE9EBE0115110509F0C5
:1048E0002CC2AF92BF927F926F9287E39FE49F9317
:1048F0008F9389E690E79F938F930E94DE0A2DB7EE
:104900003EB7285F3F4F2DBF3EBF46CF8215930570
:10491000A4F05F924F923F922F929F938F9381E4E6
:104920009DE49F938F931F930F930E94DE0AEDB730
:10493000FEB73A96EDBFFEBFC9CF8C0D9D1DDC01C1
:1049400011961C9282E090E0F1DE50E040E070E0D1
:1049500060E0C6010E94171819821A82FE01339680
:1049600082E5DF011D928A95E9F7A7961EAE1FAE7C
:10497000A797A9961EAE1FAEA997EE5AFF4F1192A8
:1049800011928EE0DF011D928A95E9F730E3C32E84
:1049900045E7D42EE12CF12C00E010E020E030E0DF
:1049A00044E550E0BE016F5F7F4F85E99DE40E94C2
:1049B000240F81110DC081EA9DE40E949C0A61E0F0
:1049C00082E090E054DE61E081E090E050DE7ECF56
:1049D00061E082E090E04BDE00E024E030E0AE01F8
:1049E0004B595F4F61E0CE0101960E94C50C182F14
:1049F00020E130E0AE014B5A5F4F63E0CE010196FB
:104A00000E94C50CF82E1123D1F0CE018B599F4F77
:104A10000E943C4F8C01FF20A9F0CE018B5A9F4F82
:104A20000E943C4F6C01990FEE08FF0861E082E0A4
:104A300090E01DDE61E081E090E019DE4CCF10E0F7
:104A400000E0E9CFC12CD12C7601F0CFDF92CF92DC
:104A5000AF92BF927F926F928CEC9DE49F938F9365
:104A6000E9E6F0E7FF93EF930E94520BF601019005
:104A70000020E9F731974F018C189D088E010759E6
:104A80001F4F84E390E0D8018D939C93EDB7FEB760
:104A90003A96EDBFFEBF2DB73EB7E3962EAF3FAFC0
:104AA000E39781E090E042DE50E040E070E060E0BB
:104AB00086EE9CE40E941718C401B0E0A0E0AF9617
:104AC0008CAF9DAFAEAFBFAFAF97B401CD010E9429
:104AD0002B510E94DE530E942954EB2DFA2DDF0149
:104AE0000D900020E9F711977D01EE1AFF0A20E0F2
:104AF00030E040E85FE30E94DD520E94AE53A5E241
:104B0000EA0EF11C1B012C012E0C3F1C411C511CF8
:104B1000D201C1010196A11DB11DEDB7FEB7E81B81
:104B2000F90BEDBFFEBF2DB73EB72F5F3F4F7901A9
:104B300082EF91E69F938F931F930F931F921F9283
:104B4000AD963FADAD973F93AC968FADAC978F933D
:104B5000AF92BF921F921F9281EE9DE49F938F931D
:104B60003F922F92FF92EF920E9483578C01ADB734
:104B7000BEB75296ADBFBEBF97FF1EC01F938F93A7
:104B800087E09EE49F938F93E9E6F0E7FF93EF932E
:104B90000E94DE0A0F900F900F900F900F900F90D1
:104BA000C12CD12C760110E000E0E396EEADFFAD14
:104BB000E397EDBFFEBF91CE82159305B4F05F92EF
:104BC0004F923F922F921F938F9381E49EE49F9385
:104BD0008F9389E690E79F938F930E94DE0AEDB74B
:104BE000FEB73A96EDBFFEBFDBCFF701E80FF91F26
:104BF000118282E090E09ADD41E0B801C7010E9495
:104C0000B60E8114910421F140E25EE460E070E0B0
:104C10008EE30E94B90781110DC084E99EE40E94D1
:104C2000470A61E081E090E022DD61E082E090E00F
:104C30001EDDB6CFFFEF22E537E0F15020403040D7
:104C4000E1F700C0000041E0B401C6010E94B60EC9
:104C500019821A82FE01339682E5DF011D928A9540
:104C6000E9F7A7961EAE1FAEA797A9961EAE1FAE78
:104C7000A997EE5AFF4F119211928EE0DF011D921B
:104C80008A95E9F790E3C92E25E7D22EE12CF12C85
:104C900000E010E020E030E044E550E0BE016F5F4E
:104CA0007F4F85E99DE40E94240F61E081110CC0D3
:104CB00081E090E0DCDC61E082E090E0D8DC81EA39
:104CC0009DE40E949C0A6CCF82E090E0D0DC00E082
:104CD00024E030E0AE014B595F4F61E0CE01019618
:104CE0000E94C50C182F20E130E0AE014B5A5F4FF7
:104CF00063E0CE0101960E94C50CF82E1123B1F09D
:104D0000CE018B599F4F0E943C4F8C01FF2089F0B0
:104D1000CE018B5A9F4F0E943C4F6C01990FEE08B9
:104D2000FF0861E081E090E0A2DC3FCF10E000E00E
:104D3000EDCFC12CD12C7601F4CF083C110591F0B8
:104D40001F930F9385E79FE49F938F9389E690E7E6
:104D50009F938F930E94BA0B0F900F900F900F901C
:104D60000F900F9008EE13E0C114D104E104F10498
:104D7000B1F08601005F1F4FFF92EF92DF92CF925A
:104D80008FE99FE49F938F9389E690E79F938F939A
:104D90000E94220C8DB79EB708968DBF9EBF28013A
:104DA000712C612CADB6BEB6ADB7BEB7A01BB10BB2
:104DB000ADBFBEBFEDB7FEB731966F01D301C801DD
:104DC00080549109A109B1099E012F5F3F4F7901DC
:104DD00062EF71E68D399540A105B105E0F550E02F
:104DE00040E070E060E086EE9CE40E9417181982B3
:104DF0001A82FE0133968EE1DF011D928A95E9F752
:104E00001F921F925F920F9383EC9FE49F938F9367
:104E1000FF92EF920E94BA57F70101900020E9F744
:104E20003197BF016E197F0941E0C7010E94B60E9C
:104E3000EDB7FEB73896EDBFFEBF83E0982E0E9417
:104E40009107CC97E1F79A949110F9CFB801C60178
:104E50000E947017B601C7010E94BE09ADBEBEBE5A
:104E60008D819E81009759F487ED9FE40E94470A47
:104E70000FEF1FEF89819A810E9454558FCC0196C4
:104E80000E94B854E196AEADBFADE1978D939C936F
:104E900069817A810E94FD5610E000E0EBCFFC01B1
:104EA00081818B7F813331F481E080938D6690E046
:104EB00080E03CCC80918D66882371F010928D66E5
:104EC00061E090E080E0D3DBD6DBE0912664F091F6
:104ED0002764309709F009940895FC01828180339A
:104EE00069F481E08093906681E090E01FDCE091BE
:104EF0002864F09129643097A9F009941092906683
:104F000061E081E090E0B3DB41E067E170E08EE5D5
:104F100095E40E94B60E0E948207E0918E66F091A1
:104F20008F66E9CF0895E0E2F8E0158216821782D5
:104F300062EC70E083E183DA61E085E1B4DA62EC8F
:104F400070E085E17CDA62EC70E084E178DA84E19B
:104F50000E94180362EC70E082E171DA82E10E9443
:104F6000180362EC71E08EE06ADA62EC71E08FE0C7
:104F700066DA109291660895CF93DF93CDB7DEB7CE
:104F80002897CDBFDEBF80919166882361F173DBE6
:104F90008FEE9FE40E945E0D50E040E070E060E024
:104FA00084EF9FE40E94171880ED97E0A0E0B0E046
:104FB00089839A83AB83BC830E94BB026D837E830B
:104FC0008F83988780918D66882331F0CE0101967A
:104FD0000E942A078823B1F38EEF9FE40E945E0DA2
:104FE0000E948207A0DF10928C6610928D66289630
:104FF000CDBFDEBFDF91CF910895CF92DF92EF92C8
:10500000FF920F931F9361E870E08EE018DA62E878
:1050100070E08FE014DA61E870E085E110DA61E0B9
:1050200085E141DA62E971E082E109DAE091F84173
:10503000F091F941309769F08DE497E0808791878E
:105040009FB7F89480915404887F816080935404C2
:105050009FBF61E870E083E1F2D961E083E123DA88
:105060008FE59AEE0197F1F700C0000060E083E160
:105070001ADA81E493E0809328089093290880EA63
:105080008093250880EC8093260883E0809327088E
:105090000E946F0780E2C82E9EE4D92EE12CF12CED
:1050A00000E010E020E030E040E851E070E060E037
:1050B00084E090E50E94240F81110BC08DE090E503
:1050C0000E94470A1F910F91FF90EF90DF90CF90C1
:1050D0002ACF0E94820781E0809391661F910F91F1
:1050E000FF90EF90DF90CF9008954F925F926F9274
:1050F0007F928F929F92AF92BF92CF92DF92EF9268
:10510000FF920F931F93CF93DF93CDB7DEB7A39793
:10511000CDBFDEBF6C01ADB6BEB6E0912A64F091A2
:105120002B640190F081E02D96888788DC010D903A
:105130000020E9F711977D01E81AF90A10919066AD
:1051400011111EC080E490E50E94470A61E082E0F0
:10515000AAD9812FADBEBEBEA396CDBFDEBFDF9163
:10516000CF911F910F91FF90EF90DF90CF90BF9064
:10517000AF909F908F907F906F905F904F90089529
:1051800082E090E0D3DA2701712C612CC301B701D2
:105190000E942B510E94DE530E94295420E030E0EF
:1051A00040E85FE30E94DD520E94AE5365567F4F98
:1051B0008DB79EB7861B970B8DBF9EBF0DB71EB7D1
:1051C0000F5F1F4F1F921F925F92EF921F9281E01D
:1051D0008F938F929F9286E790E59F938F931F9373
:1051E0000F930E94BA57F80101900020E9F7319718
:1051F000BF01601B710B41E0C8010E94B60E40ED7B
:1052000057E060E070E08EE30E94B907182FADB759
:10521000BEB71C96ADBFBEBF811109C087E990E53E
:105220000E949C0A61E082E090E021DA92CFDF9256
:10523000CF9282EC90E59F938F9389E690E79F93BE
:105240008F930E94520B40E0B701C6010E94B60E38
:1052500019821A82FE0133968EE1DF011D928A9532
:10526000E9F719A21AA21BA280E3C82E95E7D92E4E
:10527000E12CF12C00E010E020E030E040E250E0D2
:10528000BE016F5F7F4F80EE90E50E94240F182FC4
:105290000F900F900F900F900F900F90811105C0FD
:1052A00082EF90E50E949C0A54CF0E94820700E0A2
:1052B00023E030E0AE014F5D5F4F62E0CE0101962A
:1052C0000E94C50C182F811105C08BE491E50E9446
:1052D000470A3FCFCE0181960E943C4F082F8F3F57
:1052E00009F401E161E082E090E0C1D9002309F412
:1052F00030CFB8E10B02C0011124875D9F4B9F9313
:105300008F9384E891E59F938F9389E690E79F932D
:105310008F930E94DE0A0F900F900F900F900F90C6
:105320000F9010E016CF0F931F93CF93DF93162F9C
:10533000072F462F572F60E00E94971ED82FC92FA6
:105340000F931F938AEA91E59F938F938FE197E5DF
:105350009F938F9381EB91E59F938F930E94445786
:10536000CF93DF938CEC91E59F938F930E944457EA
:105370008D2F9C2FBADE8DB79EB70C968DBF9EBF2A
:105380008D2F9C2FDF91CF911F910F910C9454552D
:10539000CF93DF93EC010E94901F6EEE71E50097B2
:1053A00021F00E9454556EED71E5CE01DF91CF9151
:1053B000BACFEF92FF920F931F93CF93DF938A019F
:1053C0007901660F6093A16E1092A26ED0E0C0E0EA
:1053D000CE15DF0560F4F801EC0FFD1F608185E953
:1053E0009EE60E94D504892B99F32196F1CFE09196
:1053F0009D6EF0919E6E85818370B9F0838180FFF0
:1054000014C04091A16E4E7F90E080E020E0358195
:10541000532F53700196813C6DE5960720F433FFBE
:105420000DC088E0858383E0848390E080E0DF9195
:10543000CF911F910F91FF90EF900895513021F47B
:10544000478390E080E0E3CF523009F736FFDFCFAB
:1054500034FDE9CF8091A26E281728F7A22FB0E083
:10546000A655B1498C9180872F5FEBCF80919D6EBF
:1054700090919E6E811529E0920709F04AC08091B3
:10548000E5058C7F82608093E505FB01668177816D
:1054900080859185683EF3E07F078105910528F0BE
:1054A00020919F6E21FD0E94FE0180919F6E81FDE3
:1054B0002DC082FD2BC0E0919D6EF0919E6EE11596
:1054C00029E0F207A1F58091E50583709CE0823028
:1054D00049F5909346049091010990FF05C08823F7
:1054E00021F180EC8093460480919F6E82608093CE
:1054F0009F6E81E08383858380919F6E81FF06C0CC
:1055000060EA76E881E090E00E94FE0190E080E0B1
:1055100008958032994009F0B8CF8091E505837FE6
:105520008860B1CF90930604D6CF8CE0DBCFE03219
:1055300089E0F807C9F68091E5058C709CE0883019
:1055400061F4909326049091210990FFCDCF8111B1
:1055500007C08CE080932604C7CF9093A604F3CFB6
:1055600080ECF8CF8F929F92AF92BF92DF92EF9232
:10557000FF920F931F93CF93DF930097B1F16115C3
:10558000710599F17B01FC01C481D581209701F15E
:105590000889198901151105A9F0E016F106C1F075
:1055A0005701F501D1905F018D2D90E00E94B95611
:1055B0004C01F80181918F0190E00E94B956881644
:1055C000990621F00990D881C02DE0CFD110E9CF04
:1055D000CE01DF91CF911F910F91FF90EF90DF905F
:1055E000BF90AF909F908F900895D0E0C0E0F0CF33
:1055F000AF92BF92CF92DF92FF920F931F93CF9300
:10560000DF93009711F4F12C62C0F0903D64FF200D
:10561000D1F36B018C010E94DE10EC01009799F32D
:1056200040912D6450912E6463E773E50E94081148
:10563000892B61F142EF51E666EE7AE5CE010E94D8
:105640000811892B19F1CE010E94BB105C01892B36
:10565000E9F0BE01F801828193810E942005892B27
:1056600091F00E94DE10F80184839583009759F031
:10567000BC01C5010E942005892B61F4F8018481D9
:1056800095810E941B05C5010E941B05CE010E9449
:105690001B05B9CFA6016DEF71E5CE010E9408117F
:1056A000892B09F4B0CFF801C081D18160EF7AE590
:1056B000CE0158DF892B59F4A60160EF7AE5CE01BF
:1056C0000E940811FF24F394892B09F49CCF8F2D9D
:1056D000DF91CF911F910F91FF90DF90CF90BF90FE
:1056E000AF900895AF92BF92CF92DF92EF92FF9268
:1056F0000F931F93CF93DF93D82FC92F5B01CA015C
:105700000E94EF0F8C0166EB77E50E945C506C0104
:10571000F50110821182892BA1F4C8010E94545511
:10572000D0E0C0E08D2F9C2FDF91CF911F910F9182
:10573000FF90EF90DF90CF90BF90AF900895D82F5B
:10574000C92FF501808191810E945455C6010E94A4
:10575000EF0F7C01F50180839183892BF1F266EBD9
:1057600077E590E080E00E945C506C01892B71F03D
:10577000B7018D2F9C2FF6DE009709F7B7018D2F0B
:105780009C2F0E94EB100097D1F6C7CFC8010E9452
:105790005455C8CFE7DE009751F0FC012681203137
:1057A00031F480859185009711F00C94EF0F90E013
:1057B00080E00895AF92BF92CF92DF92FF920F9355
:1057C0001F93CF93DF936C0164E672E5FC01808147
:1057D00091810E94741E009709F49BC0FC012681F0
:1057E000203209F096C0C481D581FE0190E080E0AE
:1057F000309709F07BC0892B09F48BC0CE010E9441
:105800000D05882309F477C0888599850E94EF0FDC
:105810005C01009709F47DC0BF928F938DE692E5FD
:105820009F938F930E9444576FE47CE5F60180813B
:1058300091810E94741E0F900F900F900F9000970F
:1058400009F482C0FC012681203409F07DC062E8A1
:1058500072E588DEEC010E940D05882309F474C00E
:10586000888599850E94EF0F8C01B80185E892E543
:105870000E94F456009709F06AC01F930F938EE8B8
:1058800092E59F938F930E9444570F900F900F9033
:105890000F90FF24F394C0E0D2E5C5010E94545557
:1058A000C8010E945455AE016F2DC6010E94971E7B
:1058B000EC01009709F475C0DF938F9382E493E5C0
:1058C0009F938F930E944457CE010FDC0F900F904F
:1058D0000F900F90CE01DF91CF911F910F91FF900C
:1058E000DF90CF90BF90AF900C94545501960190EB
:1058F000F081E02D7DCF209761F08E81803449F4D6
:1059000069E672E5CE012EDEEC010E940D058111E3
:105910007BCFC6010E94901FEC01F12C009709F487
:10592000C2CFDF938F9382E393E59F938F930E947F
:105930004457CE010E9454550F900F900F900F9036
:10594000F12CC5E3D2E5AFCF00E010E08ECFF92E09
:10595000FF1CFF24FF1C81F01F930F9380EC92E546
:105960009F938F930E9444570F900F900F900F902A
:10597000F12CCEEDD1E591CF1F930F9385E892E501
:105980009F938F9388EE92E59F938F930E94445745
:105990000F900F900F900F900F900F90C4E1D2E5F1
:1059A0007CCFDF91CF911F910F91FF90DF90CF902F
:1059B000BF90AF9008954F925F926F927F928F92B7
:1059C0009F92AF92BF92CF92DF92EF92FF920F938E
:1059D0001F93CF93DF93CDB7DEB7C254D109CDBFAC
:1059E000DEBF6115710519F490E080E04AC0DB016B
:1059F000AD90BC901197A114B104B1F38B017C015F
:105A0000FB01C480D5802601F4E04F0E511C129694
:105A10006D907C9064147504C0F044E050E06CE13B
:105A200077E4C5018C0D9D1D0E940D57892B69F4EB
:105A300084E090E0F70186839783D80114964D9215
:105A40005C92159781E090E01CC04601B5E08B0E9A
:105A5000911C6814790450F145E050E061E277E46C
:105A6000C5018C0D9D1D0E940D57892BF9F481E015
:105A700090E0F70186839783D80114968D929C92CB
:105A80001597CE5BDF4FCDBFDEBFDF91CF911F916A
:105A90000F91FF90EF90DF90CF90BF90AF909F90CD
:105AA0008F907F906F905F904F900895641475046D
:105AB000D0F044E050E067E277E4C5018C0D9D1D15
:105AC0000E940D57892B79F482E090E0F7018683DC
:105AD000978381E090E082879387D80114964D9256
